{
  "contractName": "Counterfeit",
  "abi": [
    {
      "inputs": [],
      "stateMutability": "nonpayable",
      "type": "constructor"
    },
    {
      "anonymous": false,
      "inputs": [
        {
          "indexed": true,
          "internalType": "address",
          "name": "sender",
          "type": "address"
        },
        {
          "indexed": true,
          "internalType": "address",
          "name": "receiver",
          "type": "address"
        },
        {
          "indexed": false,
          "internalType": "uint256",
          "name": "amount",
          "type": "uint256"
        },
        {
          "indexed": false,
          "internalType": "string",
          "name": "message",
          "type": "string"
        }
      ],
      "name": "TransactionCompleted",
      "type": "event"
    },
    {
      "inputs": [],
      "name": "manufacturer",
      "outputs": [
        {
          "internalType": "address",
          "name": "",
          "type": "address"
        }
      ],
      "stateMutability": "view",
      "type": "function"
    },
    {
      "inputs": [
        {
          "internalType": "address",
          "name": "",
          "type": "address"
        }
      ],
      "name": "numTransactions",
      "outputs": [
        {
          "internalType": "uint256",
          "name": "",
          "type": "uint256"
        }
      ],
      "stateMutability": "view",
      "type": "function"
    },
    {
      "inputs": [],
      "name": "pharmacy",
      "outputs": [
        {
          "internalType": "address",
          "name": "",
          "type": "address"
        }
      ],
      "stateMutability": "view",
      "type": "function"
    },
    {
      "inputs": [
        {
          "internalType": "address",
          "name": "",
          "type": "address"
        }
      ],
      "name": "verifiedTokens",
      "outputs": [
        {
          "internalType": "bool",
          "name": "",
          "type": "bool"
        }
      ],
      "stateMutability": "view",
      "type": "function"
    },
    {
      "inputs": [
        {
          "internalType": "uint256",
          "name": "",
          "type": "uint256"
        }
      ],
      "name": "verifiedTokensList",
      "outputs": [
        {
          "internalType": "address",
          "name": "",
          "type": "address"
        }
      ],
      "stateMutability": "view",
      "type": "function"
    },
    {
      "inputs": [
        {
          "internalType": "address",
          "name": "_token",
          "type": "address"
        }
      ],
      "name": "addVerifyToken",
      "outputs": [],
      "stateMutability": "nonpayable",
      "type": "function"
    },
    {
      "inputs": [
        {
          "internalType": "address",
          "name": "_token",
          "type": "address"
        }
      ],
      "name": "removeVerifiedToken",
      "outputs": [],
      "stateMutability": "nonpayable",
      "type": "function"
    },
    {
      "inputs": [],
      "name": "getVerifiedTokens",
      "outputs": [
        {
          "internalType": "address[]",
          "name": "",
          "type": "address[]"
        }
      ],
      "stateMutability": "view",
      "type": "function"
    },
    {
      "inputs": [],
      "name": "verify",
      "outputs": [
        {
          "internalType": "uint256",
          "name": "",
          "type": "uint256"
        }
      ],
      "stateMutability": "view",
      "type": "function"
    },
    {
      "inputs": [],
      "name": "getTransactionNumber",
      "outputs": [
        {
          "internalType": "uint256",
          "name": "",
          "type": "uint256"
        }
      ],
      "stateMutability": "view",
      "type": "function"
    },
    {
      "inputs": [],
      "name": "addTransaction",
      "outputs": [],
      "stateMutability": "nonpayable",
      "type": "function"
    }
  ],
  "bytecode": "0x608060405234801561000f575f80fd5b50335f806101000a81548173ffffffffffffffffffffffffffffffffffffffff021916908373ffffffffffffffffffffffffffffffffffffffff160217905550606460025f3073ffffffffffffffffffffffffffffffffffffffff1673ffffffffffffffffffffffffffffffffffffffff1681526020019081526020015f2081905550610e418061009f5f395ff3fe608060405234801561000f575f80fd5b50600436106100a7575f3560e01c8063747542821161006f5780637475428214610163578063af34aea414610181578063af647b3b1461018b578063ecab2f0e146101a9578063f3a4ee0b146101d9578063fc735e99146101f5576100a7565b8063028e834d146100ab5780630d499cc8146100c95780631baaaffe146100f957806349cd2f11146101295780635ef2c2bf14610145575b5f80fd5b6100b3610213565b6040516100c09190610966565b60405180910390f35b6100e360048036038101906100de91906109dd565b610257565b6040516100f09190610966565b60405180910390f35b610113600480360381019061010e91906109dd565b61026c565b6040516101209190610a22565b60405180910390f35b610143600480360381019061013e91906109dd565b610289565b005b61014d61057d565b60405161015a9190610af2565b60405180910390f35b61016b610608565b6040516101789190610b21565b60405180910390f35b61018961062b565b005b610193610765565b6040516101a09190610b21565b60405180910390f35b6101c360048036038101906101be9190610b64565b61078a565b6040516101d09190610b21565b60405180910390f35b6101f360048036038101906101ee91906109dd565b6107c5565b005b6101fd61090a565b60405161020a9190610966565b60405180910390f35b5f60025f3073ffffffffffffffffffffffffffffffffffffffff1673ffffffffffffffffffffffffffffffffffffffff1681526020019081526020015f2054905090565b6002602052805f5260405f205f915090505481565b6003602052805f5260405f205f915054906101000a900460ff1681565b5f8054906101000a900473ffffffffffffffffffffffffffffffffffffffff1673ffffffffffffffffffffffffffffffffffffffff163373ffffffffffffffffffffffffffffffffffffffff1614610316576040517f08c379a000000000000000000000000000000000000000000000000000000000815260040161030d90610be9565b60405180910390fd5b6001151560035f8373ffffffffffffffffffffffffffffffffffffffff1673ffffffffffffffffffffffffffffffffffffffff1681526020019081526020015f205f9054906101000a900460ff161515146103a6576040517f08c379a000000000000000000000000000000000000000000000000000000000815260040161039d90610c51565b60405180910390fd5b5f60035f8373ffffffffffffffffffffffffffffffffffffffff1673ffffffffffffffffffffffffffffffffffffffff1681526020019081526020015f205f6101000a81548160ff0219169083151502179055505f5b600480549050811015610579578173ffffffffffffffffffffffffffffffffffffffff166004828154811061043457610433610c6f565b5b905f5260205f20015f9054906101000a900473ffffffffffffffffffffffffffffffffffffffff1673ffffffffffffffffffffffffffffffffffffffff1603610566576004600160048054905061048b9190610cc9565b8154811061049c5761049b610c6f565b5b905f5260205f20015f9054906101000a900473ffffffffffffffffffffffffffffffffffffffff16600482815481106104d8576104d7610c6f565b5b905f5260205f20015f6101000a81548173ffffffffffffffffffffffffffffffffffffffff021916908373ffffffffffffffffffffffffffffffffffffffff160217905550600480548061052f5761052e610cfc565b5b600190038181905f5260205f20015f6101000a81549073ffffffffffffffffffffffffffffffffffffffff02191690559055610579565b808061057190610d29565b9150506103fc565b5050565b606060048054806020026020016040519081016040528092919081815260200182805480156105fe57602002820191905f5260205f20905b815f9054906101000a900473ffffffffffffffffffffffffffffffffffffffff1673ffffffffffffffffffffffffffffffffffffffff16815260200190600101908083116105b5575b5050505050905090565b5f8054906101000a900473ffffffffffffffffffffffffffffffffffffffff1681565b5f8054906101000a900473ffffffffffffffffffffffffffffffffffffffff1673ffffffffffffffffffffffffffffffffffffffff163373ffffffffffffffffffffffffffffffffffffffff1614806106d0575060015f9054906101000a900473ffffffffffffffffffffffffffffffffffffffff1673ffffffffffffffffffffffffffffffffffffffff163373ffffffffffffffffffffffffffffffffffffffff16145b61070f576040517f08c379a000000000000000000000000000000000000000000000000000000000815260040161070690610dba565b60405180910390fd5b600160025f3073ffffffffffffffffffffffffffffffffffffffff1673ffffffffffffffffffffffffffffffffffffffff1681526020019081526020015f205f82825461075c9190610dd8565b92505081905550565b60015f9054906101000a900473ffffffffffffffffffffffffffffffffffffffff1681565b60048181548110610799575f80fd5b905f5260205f20015f915054906101000a900473ffffffffffffffffffffffffffffffffffffffff1681565b5f8054906101000a900473ffffffffffffffffffffffffffffffffffffffff1673ffffffffffffffffffffffffffffffffffffffff163373ffffffffffffffffffffffffffffffffffffffff1614610852576040517f08c379a000000000000000000000000000000000000000000000000000000000815260040161084990610be9565b60405180910390fd5b600160035f8373ffffffffffffffffffffffffffffffffffffffff1673ffffffffffffffffffffffffffffffffffffffff1681526020019081526020015f205f6101000a81548160ff021916908315150217905550600481908060018154018082558091505060019003905f5260205f20015f9091909190916101000a81548173ffffffffffffffffffffffffffffffffffffffff021916908373ffffffffffffffffffffffffffffffffffffffff16021790555050565b5f60025f3073ffffffffffffffffffffffffffffffffffffffff1673ffffffffffffffffffffffffffffffffffffffff1681526020019081526020015f2054905090565b5f819050919050565b6109608161094e565b82525050565b5f6020820190506109795f830184610957565b92915050565b5f80fd5b5f73ffffffffffffffffffffffffffffffffffffffff82169050919050565b5f6109ac82610983565b9050919050565b6109bc816109a2565b81146109c6575f80fd5b50565b5f813590506109d7816109b3565b92915050565b5f602082840312156109f2576109f161097f565b5b5f6109ff848285016109c9565b91505092915050565b5f8115159050919050565b610a1c81610a08565b82525050565b5f602082019050610a355f830184610a13565b92915050565b5f81519050919050565b5f82825260208201905092915050565b5f819050602082019050919050565b610a6d816109a2565b82525050565b5f610a7e8383610a64565b60208301905092915050565b5f602082019050919050565b5f610aa082610a3b565b610aaa8185610a45565b9350610ab583610a55565b805f5b83811015610ae5578151610acc8882610a73565b9750610ad783610a8a565b925050600181019050610ab8565b5085935050505092915050565b5f6020820190508181035f830152610b0a8184610a96565b905092915050565b610b1b816109a2565b82525050565b5f602082019050610b345f830184610b12565b92915050565b610b438161094e565b8114610b4d575f80fd5b50565b5f81359050610b5e81610b3a565b92915050565b5f60208284031215610b7957610b7861097f565b5b5f610b8684828501610b50565b91505092915050565b5f82825260208201905092915050565b7f4d616e756661637475726572206f6e6c792e00000000000000000000000000005f82015250565b5f610bd3601283610b8f565b9150610bde82610b9f565b602082019050919050565b5f6020820190508181035f830152610c0081610bc7565b9050919050565b7f546f6b656e206973206e6f742076657269666965642e000000000000000000005f82015250565b5f610c3b601683610b8f565b9150610c4682610c07565b602082019050919050565b5f6020820190508181035f830152610c6881610c2f565b9050919050565b7f4e487b71000000000000000000000000000000000000000000000000000000005f52603260045260245ffd5b7f4e487b71000000000000000000000000000000000000000000000000000000005f52601160045260245ffd5b5f610cd38261094e565b9150610cde8361094e565b9250828203905081811115610cf657610cf5610c9c565b5b92915050565b7f4e487b71000000000000000000000000000000000000000000000000000000005f52603160045260245ffd5b5f610d338261094e565b91507fffffffffffffffffffffffffffffffffffffffffffffffffffffffffffffffff8203610d6557610d64610c9c565b5b600182019050919050565b7f556e617574686f72697a6564207472616e73616374696f6e00000000000000005f82015250565b5f610da4601883610b8f565b9150610daf82610d70565b602082019050919050565b5f6020820190508181035f830152610dd181610d98565b9050919050565b5f610de28261094e565b9150610ded8361094e565b9250828201905080821115610e0557610e04610c9c565b5b9291505056fea2646970667358221220ccd3623bdabda824ada5e42435b4c03687f74ac7fa4007b3083288326c57755064736f6c63430008150033",
  "immutableReferences": {},
  "source": "// SPDX-License-Identifier: MIT\npragma solidity ^0.8.21;\n\ncontract Counterfeit {\n\n    //vint256 private numtransactions;\n    address public manufacturer;\n    address public pharmacy;\n    //array that holds all transactions\n    mapping (address => uint) public numTransactions;\n    mapping (address => bool) public verifiedTokens;\n    address[] public verifiedTokensList;\n    \n    constructor() {\n        manufacturer = msg.sender;\n        numTransactions[address(this)] = 100;\n    }\n\n    struct Transaction {\n        address sender;\n        address receiver;\n        uint256 amount;\n        string message;\n    }\n\n    event TransactionCompleted (\n        address indexed sender,\n        address indexed receiver,\n        uint256 amount,\n        string message\n    );\n\n    modifier onlyManufacturer () {\n        require(msg.sender==manufacturer, \"Manufacturer only.\");\n        _;\n    }\n\n    modifier onlyVerifiedToken(address _token){\n        require(verifiedTokens[_token], \"Token is not verified.\");\n        _;\n    }\n\n    function addVerifyToken(address _token) public onlyManufacturer{\n        verifiedTokens[_token]=true;\n        verifiedTokensList.push(_token);\n    }\n\n    function removeVerifiedToken(address _token) public onlyManufacturer {\n        require(verifiedTokens[_token]==true, \"Token is not verified.\");\n        verifiedTokens[_token]=false;\n\n        for (uint256 i=0; i<verifiedTokensList.length; i++) {\n            if (verifiedTokensList[i] ==_token) {\n                verifiedTokensList[i] = verifiedTokensList[verifiedTokensList.length-1];\n                verifiedTokensList.pop();\n                break;\n            }\n        }\n    }\n\n    function getVerifiedTokens() public view returns (address[] memory){\n        return verifiedTokensList;\n    }\n\n\n    function verify() public view returns (uint){\n        return numTransactions[address(this)];\n    }\n\n    function getTransactionNumber() public view returns (uint){\n        return numTransactions[address(this)];\n    }\n\n    function addTransaction() public {\n        require((msg.sender==manufacturer || msg.sender==pharmacy), \"Unauthorized transaction\");\n        numTransactions[address(this)] += 1;\n    }\n\n}",
  "sourcePath": "/Users/nivednandakumar/counterfeit/contracts/Counterfeit.sol",
  "compiler": {
    "name": "solc",
    "version": "0.8.21+commit.d9974bed.Emscripten.clang"
  },
  "schemaVersion": "3.4.16",
  "updatedAt": "2024-02-25T09:39:54.302Z",
  "devdoc": {
    "kind": "dev",
    "methods": {},
    "version": 1
  },
  "userdoc": {
    "kind": "user",
    "methods": {},
    "version": 1
  }
}